:020000000129D4
:10000800FF00030E8301A8000A08A9008A010B1D3E
:100018003E280B1166308100A40A0319A50A803016
:100028002506F00080307002031D1C2814302402BD
:1000380003181F287628A401A50100302106031DF6
:10004800272801302006031D3128A001A10122081C
:10005800AA002308AB00A5203E2800302106031D76
:10006800372800302006031D3E280130A00000304C
:10007800A100FD200B1C762806195C28FD20803085
:10008800F000803023067002031D4C282208003C33
:10009800031853280130A202031CA3035728073072
:1000A800A2000030A3002208AA002308AB00A52064
:1000B80086197528FD2080302306F00080307002F4
:1000C800031D68280730220203186E28A20A0319A4
:1000D800A30A7028A201A3012208AA002308AB00E2
:1000E800A5200B1029088A00280E8300FF0E7F0E1A
:0200F8000900FD
:0E00FA008312031327088A00260882000800DC
:100108007D208A110A128000840AA60A0319A70A08
:08011800F003031D8428080018
:1001200083160313061586150E3096008B150317DC
:06013000880189010800AE
:100136000530831603138100663083128100A030D8
:040146008B00080022
:10014A00B928831203130714FC288714FC280715FF
:10015A00FC288715FC280716FC288716FC28071791
:10016A00FC288717FC28FC288312031300302B066F
:10017A00031DC12800302A060319A62800302B06C1
:10018A00031DC92801302A060319AA2800302B06A4
:10019A00031DD12802302A060319AC2800302B0689
:1001AA00031DD92803302A060319AE2800302B066E
:1001BA00031DE12804302A060319B02800302B0653
:1001CA00031DE92805302A060319B22800302B0638
:1001DA00031DF12806302A060319B42800302B061D
:1001EA00031DF92807302A060319B628B82808007B
:0801FA008312031387010800C2
:1002020083120313A001A1010730A200A3019B20C6
:100212009020031307108710071187110712871206
:0A02220007138713831287011529C3
:04400E00F22F000786
:00000001FF
