:020000003D2899
:10000800FF00030E8301A2000A08A3008A018C1DC9
:1000180011283420700888008C1123088A00220EC9
:080028008300FF0E7F0E0900AA
:0E0030008312031321088A00200882000800B2
:10003E0024308312031394008316141383121412A4
:02004E000800A8
:1000500018208A110A128000840AA00A0319A10A32
:08006000F003031D282808002D
:100068008316031314183928342883121308F00050
:0200780008007E
:10007A008316031788018901F03003138800871556
:10008A000716871285168B170B178C1583128C117E
:06009A001F204E284F2834
:04400E00F22F000786
:00000001FF
