:02000000682A6C
:10000800FF00030E8301E2000A08E1008A010C1CCC
:100018001528A20A0319A30ADE308E000B308F00C0
:100028000C1061088A00620E8300FF0E7F0E090023
:0400380000000800BC
:10003C00083083120313FC002330FD00FD0B242831
:06004C00FC0B2428080053
:10005200103083120313FD00FD0B2D280000080051
:1000620083160313A11B3828831288113A2883129E
:1000720088158316211B40288312081142288312F7
:1000820008158316A11A4828831288104A28831259
:1000920088148316211A50288312081052288312BA
:1000A20008146318562808165728081288161C20A8
:1000B20088128316A119602883128811622883127C
:1000C2008815831621196828831208116A28831259
:1000D20008158316A11870288312881072288312BB
:1000E2008814831621187828831208107A2883121C
:1000F200081463187E2808167F28081288161C2008
:0E0102008812631C86281E20872829200800EA
:10011000710DF80DF90D7408F8027508031C750FC0
:10012000F902F00DF10D0F30FC00710DF80DF90D15
:100130007408701CA128F8027508031C750FF902D9
:10014000A628F80775080318750FF907F00DF10DCB
:10015000FC0B95287018B2287408F8077508031866
:08016000750FF907000008000B
:0E016800831203135E088A005D0882000800FF
:10017600831203137408003A031DCA287508003A4F
:10018600031DCA28FF30F0007F30F10023298312B7
:100196000313FD01F901F801710870040319003415
:1001A60071087506FA00FA1BFD09FB01F51FE02828
:1001B600F409F509F40A0319F50AF11FE728F0090D
:1001C600F109F00A0319F10A71087504FA00FA1B1D
:1001D600FC2888207B180F29FD1F0034F009F1093F
:1001E600F00A0319F10AF809F909F80A0319F90AD4
:1001F6000034F51F0B29F11B07297108F900700857
:10020600F800F101F001EF28F101F001F00A0034E5
:10021600F109F009FB0AEC28F80A0319F90A74082F
:100226007802031DEF2875087902031DEF28F901EE
:10023600F801F00A0319F10AF11FEF280000FF3454
:020246000800AE
:1002480083120313631083162008A100312063145E
:0202580008009C
:10025A0083120313D301D401831253086407840061
:10026A000008003A031946298316981C4529831267
:10027A0053086407840000089900D30A0319D40AB2
:0A028A00312983122030990008008A
:10029400831203136408F2007208F100F20A65087D
:1002A400F000E50A700884000008F000710884007A
:1002B40070088000710884000008031962294E291F
:0602C4006408F0000800D0
:1002CA003C3083120313F4000030F5006408F00098
:1002DA006508F100BB207808F0007908F100700881
:1002EA00EE007108EF006E08DB006F08DC003C309E
:1002FA00F4000030F5006408F0006508F100BB2046
:10030A007008EC007108ED006C08DF006D08E00071
:10031A000A30F4000030F5006C08F0006D08F100B6
:10032A00BB203030F0077008E6000A30F4000030D5
:10033A00F5006C08F0006D08F100BB207808F000A9
:10034A007908F10030307007E7003A30E8000A30E7
:10035A00F4000030F5006E08F0006F08F100BB20D1
:10036A0030307007E9000A30F4000030F5006E08FA
:10037A00F0006F08F100BB207808F0007908F1005E
:0E038A0030307007EA00EB016630F00008002A
:100398008316031388120812081088100811881190
:1003A80083128812081288110811881008101E205C
:1003B8001E201E208814081488161C2088121E204F
:1003C80088161C2088121E2088161C2088121E20C1
:1003D800081088161C2088121E2088161C208812D7
:1003E8008810881588161C2088121E208811081469
:1003F80088161C208812081088161C2088121E20B7
:1004080088161C208812081488161C2088121E20A2
:10041800081088161C2088128815081588140814D6
:0C04280088161C2088121E206314080097
:10043400B4208A110A128000840ADD0A0319DE0A34
:08044400F003031D1A2A080051
:10044C00382A803083120313E4004B2AC030E400B6
:10045C004B2A9430E4004B2AD430E4004B2A8030F1
:10046C00E4004B2A831203136408013A0319272A68
:10047C006408023A03192C2A6408033A03192F2A38
:10048C006408043A0319322A352A6503F00064081B
:10049C00F0077008E40070088316A1003120631087
:1004AC00E70167086607840000080319662A6708D5
:1004BC006607840000088316A0002421E70A572A47
:0404CC0063140800AD
:1004D0005423831603178801890183128713881315
:1004E000831603130517051683128501CC210130ED
:1004F0008316A10031200C308316A1003120101684
:10050000901690101014DE308E000B308F008B1779
:100510000B1783160C1483120C10831698161812DE
:1005200083129817831618150317871119300313B0
:1005300099008312240825040319A72A0130E40036
:100540000130E5002630E6002622A201A301051FA6
:10055000D32AA201A301A001A101E401E5016521C3
:100560007008E5005530E4004A215530E4002D21A3
:100570000230E4000130E5005530E6002622240870
:1005800025040319D02A01308316A100312001303F
:10059000E4000130E5002D30E6002622A401A5018B
:1005A000051FD32AD02A051EF12A1018D92A1014A3
:1005B000EE2A101CEE2A1010240825040319EE2A36
:1005C00001308316A10031200130E4000130E50044
:1005D0004030E6002622A401A5011014051EF12AD0
:1005E000EE2A101C172B80302306F000803070029A
:1005F000031DFC2A02302202031C172BA00A031938
:10060000A10A2008E4002108E50065217008E50042
:100610005530E4004A215530E4002D210230E40039
:100620000130E5005530E6002622A201A301992AF7
:02063000182B85
:1006A80020308400353083120313F0001E30DD0043
:0806B8000330DE001A220800E5
:04063C000034003452
:04064000003400344E
:040644000134003449
:0E0648004B346C3469346B346E3469340034D6
:1006560054346134743473347434653472342034ED
:100666007034723469347434693473346E34753466
:060676007434213400344D
:10067C0054346134743473347434653472342034C7
:10068C007034723469347434693473346E34753440
:06069C0074342134003427
:0406A20000340034EC
:04400E00F22F000786
:00000001FF
