:020000002D28A9
:10000800FF00030E8301A4000A08A5008A010B1D46
:100018001328A00A0319A10A0B113F3081002508F3
:0C0028008A00240E8300FF0E7F0E0900EA
:0E0034008312031323088A00220882000800AA
:100042001A208A110A128000840AA20A0319A30A3A
:08005200F003031D2128080042
:10005A0083120313A001A1018316031788018901E2
:10006A0086010130831203138600831681128111DF
:10007A00011581148114A0308B003F308312810056
:10008A0000302106031D4B2828302006031D5C285A
:10009A000608803A031958280608F000F00D701077
:1000AA00700886005A2801308600A001A10145285F
:0200BA005D28BF
:04400E00F22F000786
:00000001FF
