:02000000312E9F
:10000800FF00030E8301E6000A08E7008A01700872
:10001800A7007108A6007208A5007308A400740858
:10002800A3007508A2007608A1000C1C2128E50A87
:100038000C100B308F00DE308E000C1F8D28003026
:100048003506031D292801303406031D6B280030AE
:100058003306031D312800303206031D6B281E08A5
:10006800CA00C90183161E088312C9070318CA0AE1
:100078009F151F11B401B5010130B2000030B30063
:100088000F08F600F5010E08F5070318F60A0F0821
:10009800F100F0010E087007F30071080318013E23
:1000A800F40005307507F10076080318013EF200E8
:1000B80080307406F000803072067002031D6628D6
:1000C80071087302031869284B289F148C28003084
:1000D8003306031D712801303206031D8C280030B9
:1000E8003506031D792800303406031D8C281E08A8
:1000F800E000DF0183161E088312DF070318E00AF9
:100108009F111F150130B4000030B500B201B301D2
:100118000C132708F0002608F1002508F20024082F
:10012800F3002308F4002208F5002108F600670808
:0C0138008A00660E8300FF0E7F0E090097
:0E014400213083120313FD00FD0BA6280800D6
:100152000F3083120313FC004730FD00FD0BAF2864
:0A016200FC0BAF28000000000800AD
:06016C0000000000080085
:1001720083160313A71BC02883128811C228831277
:1001820088158316271BC82883120811CA288312D0
:1001920008158316A71AD02883128810D228831232
:1001A20088148316271AD82883120810DA28831293
:1001B20008143618DE280816DF2808128816B6201A
:1001C20088128316A719E82883128811EA28831255
:1001D200881583162719F02883120811F228831232
:1001E20008158316A718F82883128810FA28831294
:1001F20088148316271800298312081002298312F3
:100202000814361806290816072908128816B62077
:0E0212008812361C0E29A9200F29A2200800F0
:0E022000F201F101F001F801F30100300800D5
:08022E00FA1FF2130030080072
:100236007B15FB1F25290130F300F201F101F001C6
:08024600FA0DF20CFF30080074
:10024E00FB14FB1F3129FF30F300F200F100F00028
:08025E00FA0DF20CFF3008005C
:10026600A0017208031D48297108F2007008F10008
:10027600F001A0157208031D48297108F200F1016A
:10028600A01120167208031956292008F302031D2F
:10029600031C5A290310F21B5E29F00DF10DF20D15
:1002A600F30B4E295A290130FC0010216129023036
:0E02B600FC001B2161290430FC001721080008
:1002C40083120313FB017308031D77080319B9296B
:1002D40072087606FA007708F3077E30031C762945
:1002E400F3020318BC297929F302031CBF297208FD
:1002F400F8007108FC007008FD00F817F6170310E9
:10030400F201F101F0011830A0007D1C932974085A
:10031400F00775080318750FF10776080318760FB0
:10032400F207F20CF10CF00CF80CFC0CFD0C0310B1
:10033400A00B8729F21BA329F80DF00DF10DF20D86
:10034400F3037B1B701CB529F81FB529F00A0319A8
:10035400F10A0319F20A031DB529F20CF10CF00C91
:10036400F30A0319BC29FA1FF2130030C129013022
:100374001021C12902302721C12904301B2100008A
:0203840008006F
:0E0386008312031338088A003708820008002B
:06039400FB15FF3008001C
:10039A0083120313FD01F80170080319003474066F
:1003AA00FA00FA1BFD09FB01F41FDD29F409F40A1E
:1003BA00F01FE129F009F00A70087404FA00FA1B28
:1003CA00052A7408F802F00D700DF80D7408F80784
:1003DA00F00D0630FC00700DF80D74087018F80264
:1003EA00701CF807F00DFC0BF029701CF8077B183D
:1003FA00132AFD1F0034F009F00AF809F80A00343C
:10040A00F41F102AF01B0D2A7008F800F001FE29CB
:10041A00F001F00A0034F009FB0AE629F80A740828
:10042A007802031DFE29F801F00AF01FFE29FF34A5
:02043A000800B8
:10043C00831603132508F2007208F100F20A26084D
:10044C00F000A60A700884000008F000710884000F
:10045C00700880007108840000080319362A222ACB
:06046C002508F000080065
:1004720083120313FA017308031D7A147708031D0C
:10048200FA147A080319852A033A0319502A7A18AA
:100492004D2AF61F832A812AF21F812A832A720893
:1004A2008039FA00F21376088039F6137A060319B6
:1004B2005E2A7A080319812A832A770873020319AC
:1004C200652A031C792A7D2A7608720203196C2A8E
:1004D200031C792A7D2A750871020319732A031CE9
:1004E200792A7D2A740870020319852A03187D2A45
:1004F200FA080319832A812AFA080319812A832A0E
:100502000314080003100800031403150800080070
:1005120083120313361083162508A700B920361458
:020522000800CF
:10052400A42A803083120313E800B72AC030E800FD
:10053400B72A9430E800B72AD430E800B72A8030CC
:10054400E800B72A831203136808013A0319932AAF
:100554006808023A0319982A6808033A03199B2A7F
:100564006808043A03199E2AA12A6903F00068085E
:10057400F0077008E80070088316A700B920361049
:10058400EB016B086A07840000080319D22A6B0880
:100594006A07840000088316A5008922EB0AC32A8F
:0405A4003614080001
:1005A80083120313EF018316A401831268088316CC
:1005B800A000831269088316A10083126A088316B3
:1005C800A20083126B088316A3002308FF3A031DB9
:1005D800F72A2208FF3A031DF72A2108FF3A031DCC
:1005E800F72A2008FF3A031D032B83126C08831691
:1005F800A5002C30A6001E220330F000012D01308A
:100608008312ED008316A21F152B80302206F000FE
:100618007008A2008312ED0A6C0884002D30800057
:10062800EC0A0030F00083162306031D252B700802
:100638002206031D252B70082106031D252B2008E3
:10064800003A031D302B83126C088316A500303046
:10065800A6001E22F001012D2308FF3A031D3E2BA0
:100668002208003A031D3E2B2108003A031D3E2BA9
:100678002008003A031D4B2B83126C088316A50033
:100688002830A6001E2283126D08F000012D0030CC
:10069800F4000030F5000030F6007F30F7008316D4
:1006A8002008F0002108F1002208F2002308F300D6
:1006B8003922013003180030F00070080319812B2B
:1006C80083162008F0002108F1002208F200230810
:1006D800F3000030F4000030F5002030F6008230DE
:1006E800F700622170088316A0007108A100720843
:1006F800A2007308A300A4034B2B83160030F40058
:100708000030F5002030F6008230F7002008F000B5
:100718002108F1002208F2002308F30039220130F1
:10072800031C0030F00070080319B72B831620084B
:10073800F0002108F1002208F2002308F300CD3070
:10074800F400CC30F5004C30F6007B30F700622125
:1007580070088316A0007108A1007208A20073082F
:10076800A300A40A812B8316FF302005F800FF3070
:100778002105F9007F302205FA0000302305FB002F
:100788007808F4007908F5007A08F6007B08F70085
:10079800F40DF50DF60DF70D741000302005F0007E
:1007A80000302105F10000302205F200FF3023055A
:1007B800F3007008A0007108A1007208A200730875
:1007C800A30074082004F00075082104F1007608DD
:1007D8002204F20077082304F3007008A0007108CF
:1007E800A1007208A2007308A3007F302302F00062
:1007F80070088312EE0001308316A3007008F4001D
:100808002008F0002108F1002208F2002308F30074
:1008180074080319162CF00DF10DF20DF30D70107C
:10082800FF3E0D2C7008A0007108A1007208A200FC
:100838007308A3002308303EF00083126C0884007C
:1008480070088000EC0A803083162406F00080309F
:10085800013A7002031C392C8030063AF0008030CF
:1008680024067002031C392C412C83126C08840066
:100878002E308000EC0A0130EF0083120630EE00C3
:100888006E08003A0319A52C8316A3012008F0006E
:100898002108F1002208F2002308F300F00DF10D01
:1008A800F20DF30D7010F00DF10DF20DF30D701047
:1008B8002008F00721080318210FF1072208031860
:1008C800220FF20723080318230FF3077008A0006C
:1008D8007108A1007208A2007308A3002008F000A4
:1008E8002108F1002208F2002308F300F00DF10DB1
:1008F800F20DF30D70107008A0007108A1007208C5
:10090800A2007308A3002308303EF00083126C088D
:10091800840070088000EC0A6F08003A031DA22CBE
:100928008316A4032408003A031DA22C83126C0822
:1009380084002E308000EC0A0130EF008312EE03B1
:10094800442CFF306C0784000008303A031DAE2C9D
:10095800EC03A52CFF306C07840000082E3A031D19
:10096800B62CEC0383162408003A0319FC2C8312D6
:100978006C08840065308000EC0A803083162406F9
:10098800F0008030003A70020318D42C83126C08EF
:1009980084002D308000EC0A83162408003CA40053
:1009A80024088312EE008030093AF0008030831664
:1009B800240670020318ED2C0A30F40083126E0826
:1009C800F000CD213030F0076C08840070088000FA
:1009D800EC0A83120A30F4006E08F000CD21780882
:1009E800F0003030F0076C08840070088000EC0AD2
:0C09F80083126C0884008001F0010800EC
:100A0400831203137408003A031D1D2D7508003A60
:100A1400031D1D2D7608003A031D1D2D7708003A8D
:100A2400031D1D2DFF30F000FF30F1007F30F20078
:100A3400FF30F300B82D8312031377080319AC2D8C
:100A440073080319AF2D720876068039FA00F2177D
:100A5400F617A0017208F8007108FC007008FD0088
:100A64007408FD027508031C750FFC027608031C4C
:100A7400760FF802F801FC01FD01031C482D031058
:100A8400F20CF10CF00CF80C0130A0007708F30222
:100A9400031C522D7E302007F3070318B22D572D67
:100AA4007E302007F307031CB52D1830FA07FD0D1F
:100AB400FC0DF80DF00DF10DF20DA00D7408F0020F
:100AC4007508031C750FF1027608031C760FF202F9
:100AD400760DA004201C702D7D147B2D7408F00766
:100AE40075080318750FF10776080318760AF207DC
:100AF4007D10FA031F307A05031D592D7B1B7D1CC5
:100B0400A22D0310F00DF10DF20DA00D7408F002EA
:100B14007508031C750FF1027608031C760FF202A8
:100B2400760D20040139FD070318FC0A0319F80A9D
:100B3400031DA22DF80CFC0CFD0CF30A0319B22DB5
:100B4400FA1FF8137808F2007C08F1007D08F00021
:100B54000030B72D0130CA21B72D02301021B72D36
:0E0B640004302721B72D08301B2100000800A7
:100B7200C3218A110A128000840AB70A0319B80A2B
:080B8200F003031DB92D08006A
:100B8A008316031388120812081088100811881196
:100B9A008312881208128811081188100810A920D7
:100BAA00A920A920881408148816B6208812A9201A
:100BBA008816B6208812A9208816B6208812A9207D
:100BCA0008108816B6208812A9208816B62088121E
:100BDA00881088158816B6208812A920881108144A
:100BEA008816B620881208108816B6208812A920FE
:100BFA008816B620881208148816B6208812A920EA
:100C0A0008108816B6208812881508158814081442
:0C0C1A008816B6208812A92036140800A5
:100C2600831203137008F8007108F000F101F20155
:100C3600F301FB01FC019630F300FA01F01F292EA7
:100C4600F809F009F80A0319F00AFA177008F10012
:0C0C56007808F000F801F20133210800DA
:100C6200E026C5250C308316A700B9200130831673
:100C7200A700B92083168514051531308312900020
:100C82000B308F00DE308E009F171F139F121F1232
:100C92009F101F14803083169F008B170B170C14A4
:100CA20083120C1083160C1783120C13E50101300A
:100CB200B4000030B500B201B3016508083A031D63
:100CC200CA2E4908F0004A08F10013260030F40049
:100CD2000030F5002030F6008130F700622100304C
:100CE200F4000030F5000030F6008930F7000225EC
:100CF2007008E1007108E2007208E3007308E40082
:100D02007008E8007108E9007208EA007308EB0055
:100D12003930EC00D422013083120313E800013091
:100D2200E9003930EA0092225F08F0006008F10021
:100D320013260030F4000030F5002030F600813038
:100D4200F70062210030F4000030F5000030F600B8
:100D52008930F70002257008CB007108CC007208B8
:100D6200CD007308CE007008E8007108E90072082F
:100D7200EA007308EB004F30EC00D42202308312F9
:100D82000313E8000130E9004F30EA0092229F1479
:060D9200E5015E2ECB2EF0
:100DC000283084000E3083120313F000D130B700B6
:080DD0000630B800B925080047
:080DA20049344E34463400349C
:080DAA004E3461344E34003474
:040DB20030340034A5
:040DB60000340034D1
:040DBA0001340034CC
:04400E00F22F000786
:00000001FF
