:020000002F28A7
:0E0006008312031321088A00200882000800DC
:1000140020308312031394008316141383121412D2
:060024008316941308008E
:0A002A00831203132208930008005C
:100034008316031314181F281A2883121308F000B8
:020044000800B2
:1000460003208A110A128000840AA00A0319A10A51
:08005600F003031D232808003C
:10005E0083160317880189018113031388018F30DA
:10006E0083128800FF3083168600871107168712C9
:10007E0009100A20831209100608A20015201A2062
:08008E007008880043284A288D
:04400E00F22F000786
:00000001FF
