:02000000462890
:10000800FF00030E8301A2000A08A3008A018C1DC9
:1000180014283720700888000608A40041208C1195
:0E00280023088A00220E8300FF0E7F0E0900BF
:0E0036008312031321088A00200882000800AC
:10004400243083120313940083161413831214129E
:020054000800A2
:100056001B208A110A128000840AA00A0319A10A29
:08006600F003031D2B28080024
:10006E008316031314183D28000037288312130833
:04007E00F000080086
:0A0082008312031324089300080002
:10008C008316031788018901811303138801FF303C
:10009C008600871507168712851622208B170B17DB
:0E00AC0083168C1583128C1100005A285C28D4
:04400E00F22F000786
:00000001FF
