:020000002F28A7
:10000800FF00030E8301A6000A08A7008A010C1C42
:1000180015280C10A00A0319A10ADE308E000B3037
:100028008F0027088A00260E8300FF0E7F0E090026
:0E0038008312031325088A00240882000800A2
:100046001C208A110A128000840AA40A0319A50A30
:08005600F003031D232808003C
:10005E0083120313A001A1010130A200A301831694
:10006E000317880189013130831203139000C030C9
:10007E008B0083160C1483120C10DE308E000B30A6
:10008E008F00831686010130831286008030210690
:10009E00F00080307002031D562803302002031C2E
:1000AE008B28A001A1012208230403197228060837
:1000BE00013A031D6B28A201A3010608F000F00D02
:1000CE0070107008860071280608F000F00CF0130E
:1000DE00700886008B2822082304031D8B2806082F
:1000EE00803A031D85280130A2000030A3000608C7
:1000FE00F000F00CF013700886008B280608F00054
:0C010E00F00D7010700886004D288C2841
:04400E00F22F000786
:00000001FF
