:02000000542981
:10000800FF00030E8301A7000A08A6008A010C1C42
:1000180015280C100B308F00DE308E00A20A031951
:10002800A30A26088A00270E8300FF0E7F0E090008
:10003800710DF80DF90D7408F8027508031C750F99
:10004800F902F00DF10D0F30FC00710DF80DF90DEE
:100058007408701C3528F8027508031C750FF9021E
:100068003A28F80775080318750FF907F00DF10D10
:10007800FC0B2928701846287408F8077508031817
:08008800750FF90700000800E4
:10009000831203137408003A031D57287508003AA9
:1000A000031D5728FF30F0007F30F100B028831285
:1000B0000313FD01F901F8017108700403190034FC
:1000C00071087506FA00FA1BFD09FB01F51F6D2882
:1000D000F409F509F40A0319F50AF11F7428F00967
:1000E000F109F00A0319F10A71087504FA00FA1B04
:1000F00089281C207B189C28FD1F0034F009F10979
:10010000F00A0319F10AF809F909F80A0319F90ABA
:100110000034F51F9828F11B94287108F900700825
:10012000F800F101F0017C28F101F001F00A00343F
:10013000F109F009FB0A7928F80A0319F90A740889
:100140007802031D7C2875087902031D7C28F901BB
:10015000F801F00A0319F10AF11F7C280000FF34AE
:02016000080095
:0E0162008312031325088A0024088200080077
:100170000A3083120313F4000030F5002808F00061
:100180002908F10048207808F0007908F10070088B
:10019000AA007108AB000A30F4000030F50028080E
:1001A000F0002908F10048200A30F4000030F50082
:1001B00048207808F0007908F1007008AC00710858
:1001C000AD008030F000803029067002031DEA285F
:1001D0002808093C031825290910891409112C083D
:1001E0009F3EF00001300318013E2D07F10070081A
:1001F000A4007108A500B1208A110A1287001A30E4
:10020000FC00F830FD00FD0B0329FC0B0329000066
:100210000910891009152A089F3EF00001300318C3
:10022000013E2B07F1007008A4007108A500B12061
:100230008A110A1287001A30FC00F830FD00FD0B0D
:100240001F29FC0B1F2900004129091089100915DD
:100250002A089F3EF00001300318013E2B07F100F1
:100260007008A4007108A500B1208A110A12870045
:100270001A30FC00F830FD00FD0B3C29FC0B3C293A
:040280000000080072
:10028400B1208A110A128000840AA40A0319A50A5B
:08029400F003031D42290800DC
:0C029C0083120313051E53294E2908008D
:1002A80083120313A001A101A201A301831603175E
:1002B80088018901031387018901051685163130E4
:1002C800831290008B170B1783160C1483120C10D3
:1002D8000B308F00DE308E00851E7429A001A1012D
:1002E800051E7E2910187A2910147D29101C7D29D5
:1002F80010104E2180302306F00080307002031D5C
:10030800872903302202031C9829A00A0319A10A8D
:1003180000302106031D922963302006031D96290B
:10032800A001A101A201A3012008A8002108A90099
:06033800B82070299E2987
:10033E003F3406345B344F3466346D347D340734C9
:04034E007F346F3455
:04400E00F22F000786
:00000001FF
