:02000000DF29F6
:10000800FF00030E8301D7000A08D6008A01700892
:10001800A0000B1D2D280B113F308100C90A49088B
:10002800283A031D2D28C901C60A3C304602031888
:100038001E287228C601C70A3C3047020318252823
:100048007228C701C80A1830480203182C287228D9
:10005800C8010B1C722806183728AA0A2A08033C6C
:1000680003183728AA01861854282A08013A031DBC
:1000780042284808003C03184228C8032A08023AC4
:10008800031D4B284708003C03184B28C7032A08C0
:10009800033A031D54284608003C03185428C60395
:1000A800061971282A08013A031D5F2817304802EB
:1000B80003185F28C80A2A08023A031D68283B303B
:1000C800470203186828C70A2A08033A031D71283B
:1000D8003B30460203187128C60A0B102008F000AE
:0E00E80056088A00570E8300FF0E7F0E090097
:0E00F600213083120313FD00FD0B7F2808004C
:100104000F3083120313FC004730FD00FD0B8828D9
:0A011400FC0B882800000000080022
:06011E00000000000800D3
:1001240083120313DD1B98288812992888165D1BF7
:100134009D2808129E280816DD1AA2288811A328D3
:1001440088155D1AA7280811A82808154A18AC288C
:100154000814AD28081088148F208810DD19B428DD
:100164008812B52888165D19B9280812BA28081605
:10017400DD18BE288811BF2888155D18C32808110A
:10018400C42808154A18C8280814C928081088144F
:100194008F2088104A1CD0288220D1287B20080078
:1001A400831203134A105C08DD0092204A140800ED
:0E01B400831203134C088A004B0882000800D7
:1001C20083120313F8010830FC00700DF80D740857
:1001D200F8020318EE28F8070310F00DFC0BE628CE
:0201E200080013
:1001E4000429803083120313D8001729C030D800A3
:1001F40017299430D8001729D430D8001729803013
:10020400D8001729831203135808013A0319F32855
:100214005808023A0319F8285808033A0319FB2826
:100224005808043A0319FE2801295903F000580814
:10023400F0077008D8007008DD0092204A10DB0136
:100244005B085A0784000008031930295B085A0721
:1002540084000008DC00D220DB0A22294A140800AA
:100264000A3083120313F4004808F000E120303010
:100274007007CD000A30F4004808F000E120780847
:10028400F00030307007CE003A30CF000A30F4006E
:100294004708F000E12030307007D0000A30F40045
:1002A4004708F000E1207808F00030307007D100F2
:1002B4003A30D2000A30F4004608F000E120303031
:1002C4007007D3000A30F4004608F000E1207808F3
:0A02D400F00030307007D40008007D
:1002DE008316031789010614861406158B1503134E
:0802EE00161496141615080001
:1002F6008316031388100810081188110812881233
:10030600831288100810881208128811081182209A
:10031600822082208815081588148F208810822054
:1003260088148F208810822088148F2088108220BD
:10033600081188148F208810822088148F20881036
:100346008811881688148F20881082208812081534
:1003560088148F208810081188148F208810822016
:1003660088148F208810081588148F208810822002
:10037600081188148F208810881608168815081505
:0C03860088148F20881082204A14080080
:10039200DA208A110A128000840ACB0A0319CC0AD5
:0803A200F003031DC929080046
:1003AA0007308316031381003F30831281008B17B5
:0403BA008B16080096
:1003BE0050227B210C30DD009220D5216F2132217D
:1003CE000130D8000130D9004D30DA00F2200F2A6A
:1003DE000230D8000130D9002130DA00F2201F2A75
:1003EE000230D8000130D9002B30DA00F2201F2A5B
:1003FE000230D8000130D9003D30DA00F2201F2A39
:10040E000230D8000130D9003430DA00F2201F2A31
:10041E002A08003A0319EF292A08013A0319F72985
:10042E002A08023A0319FF292A08033A0319072A50
:04043E00E629202A61
:1004A00021308400293083120313F0002630CB0062
:0804B0000230CC00C921080054
:10044C002034203420342034203420342034203400
:02045C0000346A
:02045E00003468
:1004600020342D34203420342034203420342034DF
:02047000003456
:1004720020342034203420342034203420342D34CD
:02048200003444
:1004840020342034203420342D34203420342034BB
:02049400003432
:02049600003430
:0204980000342E
:02049A0000342C
:02049C0000342A
:04400E00F22F000786
:00000001FF
