:02000000B72A1D
:10000600103083120313FD00FD0B072800000800C3
:10001600083083120313FC002330FD00FD0B11286A
:06002600FC0B112808008C
:04002C0000000800C8
:1000300083120313CC1B1E2888121F2888164C1B02
:100040002328081224280816CC1A282888112928C1
:1000500088154C1A2D2808112E2808153C1832280E
:10006000081433280810881416208810CC193A2850
:1000700088123B2888164C193F2808124028081679
:10008000CC1844288811452888154C18492808118F
:100090004A2808153C184E2808144F2808108814C0
:1000A000162088103C1C56280B20572803200800D7
:1000B000710DF80DF90D7408F8027508031C750F21
:1000C000F902F00DF10D0F30FC00710DF80DF90D76
:1000D0007408701C7128F8027508031C750FF9026A
:1000E0007628F80775080318750FF907F00DF10D5C
:1000F000FC0B6528701882287408F8077508031827
:08010000750FF907000008006B
:10010800831203137408003A031D93287508003AF4
:10011800031D9328FF30F0007F30F100EC28831294
:100128000313FD01F901F801710870040319003483
:1001380071087506FA00FA1BFD09FB01F51FA928CD
:10014800F409F509F40A0319F50AF11FB028F009B2
:10015800F109F00A0319F10A71087504FA00FA1B8B
:10016800C52858207B18D828FD1F0034F009F1094C
:10017800F00A0319F10AF809F909F80A0319F90A42
:100188000034F51FD428F11BD0287108F900700835
:10019800F800F101F001B828F101F001F00A00348B
:1001A800F109F009FB0AB528F80A0319F90A7408D5
:1001B8007802031DB82875087902031DB828F901CB
:1001C800F801F00A0319F10AF11FB8280000FF34FA
:0201D80008001D
:1001DA00831203133C104B08CC0018203C1408006F
:1001EA00831203137008F100F0010830FC00710853
:1001FA00F40C03180429FC0BFD28F1010034031048
:10020A000929F40C0318F107F10CF00CFC0B062970
:02021A000800DA
:0E021C008312031333088A00320882000800A0
:10022A00831603139112111683128C191D29192989
:04023A008C1108001B
:10023E003129803083120313C7004429C030C70010
:10024E0044299430C7004429D430C7004429803053
:10025E00C7004429831203134708013A03192029C2
:10026E004708023A031925294708033A0319282992
:10027E004708043A03192B292E294803F000470892
:10028E00F0077008C7007008CC0018203C10CA0197
:10029E004A0849078400000803195D294A084907DE
:1002AE0084000008CB00ED20CA0A4F293C14080038
:1002BE00831603138810081008118811081288126B
:1002CE0083128810081088120812881108110B204A
:1002DE000B200B20881508158814162088100B206B
:1002EE008814162088100B208814162088100B20D6
:1002FE0008118814162088100B20881416208810D8
:10030E00881188168814162088100B20881208155C
:10031E0088141620881008118814162088100B20B7
:10032E0088141620881008158814162088100B20A3
:10033E0008118814162088108816081688150815B6
:0C034E008814162088100B203C140800B6
:10035A0083160313911583128C19B429B0298C11B1
:06036A001308F00008007A
:1003700083160313111483128C19BF29BB298C1106
:02038000080073
:10038200831203134708F000F00CF013F00CF01383
:10039200F00CF013F00CF0130A30F400F5200F30DB
:0A03A2004705F1007108F00708009C
:1003AC0083120313470893008C19DD29DA298C1169
:0C03BC0000308316111B0130F000080017
:1003C8000A3083120313F4000030F5003408F000FB
:1003D8003508F100842030307007A0000A30F4009E
:1003E8000030F5003408F0003508F1008420780862
:1003F800F0007908F10030307007A1000A30F400ED
:100408000030F5004108F0004208F1008420303047
:100418007007A3000A30F4000030F5004108F0002E
:100428004208F10084207808F0007908F1003030A3
:100438007007A4000A30F4000030F5003F08F0000F
:100448004008F100842030307007A6000A30F4001C
:100458000030F5003F08F0004008F10084207808DB
:10046800F0007908F10030307007A7000A30F40076
:100478000030F5004508F0004608F10084203030CF
:100488007007A9000A30F4000030F5004508F000B4
:100498004608F10084207808F0007908F10030302F
:1004A8007007AA000A30F4000030F5004308F00095
:1004B8004408F100842030307007AC000A30F400A2
:1004C8000030F5004308F0004408F1008420780863
:1004D800F0007908F10030307007AD000A30F40000
:1004E8000030F5003D08F0003E08F100842030306F
:1004F8007007AF000A30F4000030F5003D08F00046
:100508003E08F10084207808F0007908F1003030C6
:060518007007B0000800AE
:10051E00831603139116111683128C19972A932A98
:04052E008C11080024
:100532000E218A110A128000840AB20A0319B30A30
:08054200F003031D992A0800D3
:10054A0083160313911483128C19AC2AA82A8C11CE
:02055A00080097
:10055C0083160313111583128C19B52AB12A8C1129
:02056C00080085
:10056E00683083120313A0006830A1003A30A20055
:10057E006D30A3006D30A4003A30A5007330A60094
:10058E007330A700A8016430A9006430AA002F3090
:10059E00AB006D30AC006D30AD002F30AE00793059
:1005AE00AF007930B000B101831694172830831252
:1005BE0094000930831693005F210130CC0018207F
:1005CE000C30CC001820B821D030C700D62107300F
:1005DE008312C700D6218312C701D621AE22B821BD
:1005EE00D030C700D6218312C701D621A522D13023
:1005FE00C700D621AD217008BA00BB013A08C7006A
:10060E00C1217008BF00C0011521AD217008B800CE
:10061E00B9013808C700C1217008C100C2011521F7
:10062E00AD217008B600B7013608C700C1217008A9
:10063E00B400B5018F22AE22E4210130C700013093
:10064E00C8002030C9001F210230C7000130C80089
:10065E002930C9001F210630FB001330FC00AD30DD
:10066E00FD00FD0B382BFC0B382BFB0B382B000041
:06067E000000F62A412BEA
:02400E007A3BFB
:00000001FF
